:100000008DC7A7C7B9CA25C8A4C7A3C7A2C7A1C718
:10001000A0C774CA9EC79DC79CC79BC79AC799C7EC
:1000200098C797C796C785005E0048002E003635F2
:100030003232323236353333333334333232333390
:1000400034353536353535003536353332313132A4
:10005000333231423642354236313131310031317D
:100060003133323133333335343335343332323064
:10007000323031373132333434333233343535344E
:10008000333231310031323331313233313334357F
:100090003033343530353635343333313135363528
:1000A0003433333131324235313032423531300040
:1000B000F300F100EF00ED00EB00E900E700E500E0
:1000C000E200DF00DC00D700CC00D3004233423234
:1000D0004231003132330042344231003431004485
:1000E000320044310037003600350034003300322E
:1000F0000031004237000000E01D9E1AB51762165D
:10010000EE13C111D00F00FF4890B8F8B098D8880E
:10011000A8E84ACA28E0010E0101807F80807F8024
:1001200080807E80808080807F8081807F818080D1
:10013000808080808081818080827F7F807E7F7FC1
:100140007F8080807F81807F8080808080838282AA
:100150008281807E7F7D81808281808180817F7F9E
:100160007F7F7E7D7D7F8082828183848282828286
:100170008182807E80807E8181807F7E7E7B797A95
:100180007C7B7C7A7772706F747F899094938D8377
:100190007E7C8082868A898A8B8E9093908C8781E0
:1001A00080818286898B898785848482817D797329
:1001B0006F676056493D2F2C4C7AAFD3E3D0A072C5
:1001C0004D3D465F76808481838FA6BAC1B899740D
:1001D00055485269879EA9A8A09893928D877B6FF6
:1001E000676D7A8D9FA9A89F938984858687857C72
:1001F0006E63575354524F494136446E99C3D5D319
:10020000A97952373A5172838E8E858797ABB8BBE6
:10021000AC8B6A514B587390A5ACA79A918C8E9178
:10022000928D847E7C838F9CA1A39E968E8C8A87E0
:1002300084796B5F5651504C483D3227356BA5D1C0
:10024000E8E1AD6F432B2B4B708388877C7B94B3A5
:10025000CAD1C49E714E3E4561829FAAAA9C9390CA
:1002600097A0A5A396897F7D85919BA09F998E8C51
:100270008A8B888272614F42342D261D141C4E7663
:10028000B2DCF4E0B48C553D364A5365716D718132
:100290009DB9D6E4D4B98D62443F4D627C8F95956B
:1002A000989AA2B0BABEB7A89382797A828C969AAD
:1002B0009896918A847A6D5C483424161009134507
:1002C00070A8D2EFE3C1A16F50434C4F57646063F5
:1002D000738DA9C8E3E1D0B187604C4C51657B8533
:1002E000898D9398ACC2CED0C6AC89726768768B84
:1002F000989E988D7F746D6861564531190C010F79
:100300003E6DA8CEEADABD9D745E57605C646457AA
:10031000545F7695BCDEE0D9BF987460595C6C7A06
:100320008482868996AEC5D5D5C7A7846D626A7C5E
:100330009098948773645D6163675F513821070A01
:100340002A568CB9DDD4C2A3826A6570757B796A3E
:1003500059525B6F90B8CFD6CCB490766A6A7583E9
:100360008D8F8F8D8D96A3B3B8B8AE9B887B787830
:100370008183827A6E6056525255534D40312530FA
:1003800044668AAEC3C1B89E8976747679807F75DB
:1003900069635E687E96A9B7BAB1A091827B8089B5
:1003A000939B9E9C938F8B8B90989C9D9990807231
:1003B000696463676869666259524B46454A596683
:1003C00076838F91929291909094918F8A847A758E
:1003D0007272767D85899094959596989B9D9E9E48
:1003E0009892897F79797D84909396908B827C799D
:1003F00078797C7D7C78746F6A6668676968666402
:100400006363686D767C83888989898A8B8B9092F7
:100410008D8B847D7A7A82899194968E8B8785865E
:100420008B8D8E8E8B888281808084868687837F69
:100430007B7877797B7E7C7B797772727272757646
:100440007474726E6C6A6E71737676767678787B79
:100450007F848688888A898A8B8C8D908D8F8D8CFD
:100460008A89898B8A8A888785838283818183812F
:10047000807E7C7B7C7B7C7C7B7B7879797A7A7BC9
:100480007C7C7B79797B7C7D7C7D7D7D7D7D7F7EA9
:100490007F8080807F808082828382848384828246
:1004A000838484848582838383838382838381811D
:1004B00080818281818080807F7F7F807F807E7E3F
:1004C0007F7F7F7F7F7F807F7F7F81808281808130
:1004D0008083818182828182838182828181818104
:1004E0008182818181818081808080808081807F04
:1004F00080817E7E807F81807F7F7F7F7F7E7F7E09
:100500007F7E7F7F7F7F8080807F7F7F7F7F7F80F8
:100510008080807F7F7F807F7F7F7E7F80807E7FE7
:100520007F7F7F817F807E80817F7F7F7F7F7F7ED7
:100530007F7F7F7F807F7E7E7F817F7E7F7F7F7ECC
:100540008080817F7F7F807F7F807F7F807E8080B3
:1005500080807F7F80818081828181808081808195
:10056000818080818081817F7F8081818180808185
:100570008080808281818180818180808180818072
:100580008080828080808181808181808281818061
:100590008281818181808080808181818080808151
:1005A0008181818080808082808280808180818042
:1005B0007F817F808080817F817F80807F8180813B
:1005C0008080807F7E7E807F807F82807F80808130
:1005D0007F7F7F7F7F807F7F7E817F7F7F7F807F28
:1005E0007F7F7F807F817F807F7E7F7F7F807F7F17
:1005F0007F7E7F807F7F7F7F7F807F7F7D7F7E800C
:100600007E807E7E807F7E807E7E7E7E7F7E7F7F00
:100610007F7F7F7F817F7D7E7F80807F7F7F8283E2
:100620008D8574768089837B79838A90867E89899B
:10063000817B7C7B7F7F7C7B7A7B7C7F817C90A2B3
:1006400098847C7C7F777C84827B787D89938D8580
:100650008685808186807A7D7E7B777776787E80BE
:1006600080808280858885827F7E7D7C7C7B7D7B8F
:100670007A80807E83827E7D827F7B7D7D7E7D7A97
:100680007D7F807F7E828381818082808081807C6B
:100690007D7D80827F7C7C7D7F7F82847E8086855D
:1006A0008884828683808384817C7F817F7E7F8132
:1006B00080808286848183837D7D817D7D7B7D8139
:1006C0007C7D82857E7F81808080828080807E7F2D
:1006D00080817E7E7D807F80817F81807D7C7E7F2A
:1006E0007F7F7F817F7D81827E7F817D80827C7F15
:1006F0007E7F828080818282848183827F80807EEF
:100700007F818180818282848180808182818283D5
:10071000838281807F7F7F7F807F7F80817F8381D5
:100720007F7F8081807F80817D7F818282808284C3
:10073000827F85837C7F817D7E7E807E7C808180C0
:100740007F8183828383868481827F7E7F7F7D7F9A
:100750007F808283878B8E909092908F918C8988F6
:10076000847E7E7E797477756E6D6B6667675F5980
:100770005B554D4D596267707F8E93969EA19B95F8
:10078000928F847E7E7C797A7F82868B92969A96EF
:100790009798968E8B8B8885888C9093999E9F9D39
:1007A0009D9B98918B8B867D7C7D7670716D656B42
:1007B0006253524F402F30495E5E6488A99F9BADC3
:1007C000AF9986857C6C62666C6E707D92999BA6F3
:1007D000AEA99A948E80726A696D6B727E848992DA
:1007E000959595918B868B857F85898C90999CA01A
:1007F000A19D9D9A918B8A847C777777716C6866CE
:10080000655D514A402D21335E6E6480B5B3A2A66A
:10081000AE9B7F6F6B685C5A6B7D848DA1AFAFA878
:10082000A6A18E7A6E665F5A5E6A76818C979D9DD0
:1008300098958E837774706F71757F878E96A4B24A
:10084000AEA2A2A4968A898B88888C9193938F8F6D
:10085000887D736B615A5854524C3D2E2524699300
:10086000658AC4C5A79FA68E755953595C59678D73
:100870009C9FA9B9B7A2978B79655554565D687B43
:100880008D9A9FA2A29A8C80766C656466707A8637
:100890008E98A1A49D9490877F807F7D8C98969957
:1008A000A6A59B98978D8782807F7D797678706BDF
:1008B000696A5F59533F292126788F6A99C9CCA765
:1008C000A09D866C4C444D5F626C94AFB2B0B7B0E3
:1008D0009E89736658534F596E818F9BA9ADA69917
:1008E0008C7C6D645D5F69727F8B99A0A09C988EF3
:1008F00081776F6B717D7D8F9FACB3A5A1A39B8822
:10090000808484807F86868A8681807A6E68645B34
:1009100050493E2C2222769F7B93C1D8AF93897D8C
:100920006A4A3B476570738FB2BFB3ABA79C896DB2
:100930005D5658575A6F88989FA5AAA49582746CE3
:10094000635C5F6D7C868E99A1A19990887F756D9F
:100950006D6F757E8697A6A9AAA8A2988D878281B9
:100960008184878D8D8E8F8D88827D736C655F58B5
:100970005A554E3F392A529F897EA2C8B28E8C8129
:10098000775C4A4A65726C82A2B0A8A5A89E8E7A4E
:100990006D65635D5C6C7E8A929BA29E9488817774
:1009A0006C65656C727A848E969896938F867D7648
:1009B00074737177828690A2A7A1A1A0988C868477
:1009C000848284868D918D8F918C85827D756C69F2
:1009D00065625F5F5854483D2C5F987578A5C2A248
:1009E0008F968C7B5F5259696567869E9E9CACAFE3
:1009F0009E91847D6F635B626A717B89979A9A99F5
:100A000093897D736E6A6A68737D838C949A9A95D4
:100A1000938F847B78787677828E91959CA09B9338
:100A2000918D878282818583868B8C8A8889847C5C
:100A300078736D6A66625F615B554C42315E94709B
:100A400076A6BA9A919C8F7B655F6369606787948D
:100A50008E97AEAC97949386716966696667768661
:100A60008D8E989C948B867F77706D7175737A8864
:100A70008E8E9299958F8787837C78808B8A8995D3
:100A80009E969397968D868787847E8185868085BE
:100A900089867F807B736E6B67625F61594F4A47BF
:100AA0003B63886E7EA5AE95969D8C7A6B68676A6F
:100AB000646F87898999AAA1989A978776726D69D8
:100AC0006468777F818994948F8D8E877B78787620
:100AD00074747B82858890969490908E8A8787889C
:100AE00087888B8F9091929193908E8C888582804D
:100AF0007E7F817F7E7F7D7A7874706D6B68625EA9
:100B00005A58524C45657D727F97A39492978E7E7A
:100B10007273716D6C76808285919C989499968998
:100B20007E7C78716C6F77797A828A8B898B8C85E1
:100B300081807E7B7A7C808184898E90929393944D
:100B4000918C8D8A88898B8C8C8E908F8F8D8987E4
:100B5000857F7C7B78757474737171716F6D6A6950
:100B6000655D5B575452646F738490939395918D38
:100B7000867D797977777D8080868D919191908C33
:100B800087817E797776787A7C7F81848385858575
:100B9000828281828182848A8B8B929390909290C0
:100BA0008C8C8C8B8A8C8C8E8A898C8A88858582A9
:100BB0007D7A7575726F7473717271716E6D6E6C12
:100BC000676769646468696A777E7D838B898788D3
:100BD00088838182818183818586858789898587CC
:100BE00086838382837F80808080818281828282EB
:100BF0008483848786898C8D8F90908F90908C8C45
:100C00008D8C8C8D89898886848381807E7B79799F
:100C1000797774747472737270716F7171727272A9
:100C2000707171706D6E7473767D8284848986852F
:100C30008685848282838282838584838485868478
:100C40008583828282818281818485838788898964
:100C50008B8C898A8B8A898A8B898B8A8B8A8987F4
:100C600087858382807E7E7C7C7B7B7876767874B9
:100C70007272717170727374707171716F6E707263
:100C800073767A7E7F818485848486878485868551
:100C90008283858584858687878786868585858600
:100CA00084848586878788888787878888878787D9
:100CB0008787868787868686848585827F7D7D7AFD
:100CC00079797879797976767576757373737473C3
:100CD000757571727271717679787B82807E82818E
:100CE0007F818182828283848384848584868787CE
:100CF0008A8989898B88888A8887878A888788876C
:100D00008787888686858485868483848383848296
:100D1000807F7F7E7E7B7D7D7B7A7B7A797A7A7815
:100D200077777574767674757676757776777A795F
:100D30007A7E7B7A7D7D7A7E8180808484838687BB
:100D4000878787898888888A8A89888A898888891C
:100D50008688888885858584848484858483828147
:100D600080807F7D7D7C7C7C7C7B7C7B7C7B7A7BBC
:100D7000797A77777778797A78797B7A7A7C797AE1
:100D80007B797979797A7A7C7D807F808282828290
:100D90008484848586878687888887888A878989E6
:100DA00088878788868586858384838484838282F6
:100DB00081807F807F807F7F7F7E7D7D7C7D7C7D4D
:100DC0007D7D7B7D7B7B7A7B7A7A7A7A7B7A7A7976
:100DD0007A7A79797A7A7B7D7E7F7F807E7E807F4A
:100DE00081848384858684858586858686868787B3
:100DF00087868685868584848484838283838281B2
:100E000080828080817F7F7E7F7E7D7E7E7F7D7DF4
:100E10007D7F7D7C7D7D7D7B7C7D7C7B7C7B7D7C0B
:100E20007C7C7C7C7E7E7F7F7E7F7F7F7F808080DE
:100E30008281828083828182828183838282838392
:100E40008383838383838382827F82818181818084
:100E500081818181807F7F7E7F7E7F7F7F7F7F7E9C
:100E60007E7F7D7D7F7F7E7E7E7E7D7C7C7D7D7EA8
:100E70007E7E7E7F7E7E7F7E7F7E80807F81828180
:100E80008081808183838282828181818183818349
:100E900082828382827F8182808080808182818041
:100EA00082808081818080817F7F7F807F7E7E7F46
:100EB0007E7F7F7E7E80807F807F7F8080807F7F3F
:100EC0007D807F7E7E7F7E7F807F807F808080812F
:100ED000828081818080807F7F7F8181818081810C
:100EE00081808081808082818180808080807F80FD
:100EF000818080807F7F7F7E8181818080807F7FF5
:100F00007E7F7F8180818080807F808181818080E1
:100F100080818080808080807F7E80FF11241FBE42
:100F2000CFE5D4E0DEBFCDBF12E0A0E6B0E0EAE05E
:100F3000FCE102C005900D92AA33B107D9F722E077
:100F4000AAE3B2E001C01D92A639B207E1F745D588
:100F50005AC656C81BBC1ABC1FBC1EBC15BC882375
:100F6000D1F0843049F48FE085BD84EF83BD83E404
:100F70008FBD89E18EBD09C0883069F489E085BDE7
:100F80009DE793BD91EA9FBD8EBD88E080934D02A1
:100F900089B7806889BF089520914B0230914C0237
:100FA000F90144913197E491442309F43CC080ED68
:100FB000840F883070F509C090ED980F983040F597
:100FC00030934C0220934B0202C0842F4E2F841783
:100FD000A9F0E82FF0E0EE0FFF1FEA56FF4F259132
:100FE0003491C901423419F4880F991F05C0443463
:100FF00019F4C901969587959BBD8ABD80914B02D6
:1010000090914C02019690934C0280934B0208956C
:10101000482F2F5F3F4FF90184918111CDCF30933D
:101020004C0220934B0280E095DF0895E0914B0243
:10103000F0914C0284913196F0934C02E0934B0274
:101040008F3F19F480E086DF089590E09BBD8ABD54
:1010500008951F920F920FB60F9211242F933F9372
:101060004F935F936F937F938F939F93AF93BF93B0
:10107000EF93FF9380914D02815019F080934D02C0
:101080000AC088E080934D0285B58770873011F4DF
:1010900083DF01C0CBDFFF91EF91BF91AF919F91B3
:1010A0008F917F916F915F914F913F912F910F9011
:1010B0000FBE0F901F90189590934C0280934B0297
:1010C00088E048DF089590934C0280934B0284E0BF
:1010D00041DF089540913A02442309F44BC08091C6
:1010E0004E028A3018F160914F02643068F480E05B
:1010F00090E078D580E790E097D480914F0216D5A4
:1011000086E391E091D40FC0653009F469D08091F5
:101110004F02863011F480E0F8D080914F02873082
:1011200011F481E0F2D010923A020895EEE4F2E078
:1011300091E060E080E050E0A0E071E001C0922F1B
:1011400021912A3038F4660F362F330F330F630F97
:10115000620F05C051110BC0862F6A2F572F21E057
:10116000290F941760F3511102C0862F60E010928E
:101170003A025AD008958B3060F490913A0290313F
:1011800040F4E92FF0E0E25BFD4F80839F5F909396
:101190003A028B3041F480913A028823A1F08150C9
:1011A00080933A0210C08C3049F480913A02811148
:1011B00002C049D023D010923A0205C08D3019F4F4
:1011C00089DF10923A0285E890E02ED440E06091E9
:1011D0003A028EE492E042D481EA91E025D4089567
:1011E0001092450213BE10924A02109249021092C8
:1011F000480213BE88E990E017D4089582EB90E08E
:1012000013D48AEB90E010D480914A028FD48AECF8
:1012100090E00AD48091490289D481EA91E004D413
:101220008CEC90E001D40895811102C0662351F046
:1012300080934A02609349021092480212BE85E0F0
:1012400083BFDCDF0895CF92DF92EF92FF920F937E
:101250001F93CF93DF931F92CDB7DEB781ED90E060
:10126000E3D302E010E00F2EF2E2CF2EF0E0DF2E0B
:10127000F02D89ED90E0D8D3780180E1E80EF11CE3
:10128000C80199D4898386EE90E0CED340E061E036
:10129000CE010196E3D389EE90E0C6D30F5F1F4FD6
:1012A0000E151F0569F78CEE90E0BED38701EC1494
:1012B000FD04F9F680EF90E0B7D381E090E07BD4B5
:1012C000898340E061E0CE010196C8D381EA91E0D4
:1012D000ABD38CEF90E0A8D380E090E06CD489830E
:1012E00040E061E0CE010196B9D381EA91E09CD360
:1012F0008CEC90E099D30F90DF91CF911F910F91DB
:10130000FF90EF90DF90CF900895FF920F931F937F
:10131000CF93DF938170F82E082F10E0E801C2957B
:10132000D295D07FDC27C07FDC27CE5FDF4F0F5FF9
:101330001F4F02951295107F1027007F10270E5F18
:101340001F4F6FEFCE014ED42196C017D107C9F7BA
:101350006F2D81E090E046D476DFDF91CF911F9131
:101360000F91FF900895CF93DF931F92CDB7DEB713
:1013700089838A3048F489E091E056D340E061E007
:10138000CE0101966BD30FC086E191E04DD38981E8
:1013900090E0880F991F880F991F885C9F4F44D356
:1013A00083E291E041D30F90DF91CF9108951092A5
:1013B000450280914A02811109C080914902811140
:1013C00005C080914802811101C013BE089580912B
:1013D0004A02811189C08091490281117CC08091AB
:1013E0004802811170C0089590914902911185C001
:1013F000811183C01092470210924602D8DF80E02C
:1014000090E0D9D38370E82FF0E0EE0FFF1FEA5D84
:10141000FF4F8591949157DE85E291E005D30895C1
:1014200090914902992371F18FEF890F80934902BE
:10143000982F9170925E909348029DEC899F912D18
:101440001124969596959695990F292F220F220F84
:10145000920F891352C0D2DE80914A0281114DC091
:1014600080914902EDEC8E9FE12D1124E695E695E1
:10147000E695F0E0EE0FFF1FE055FF4F8591949148
:1014800022DE0895815080934A029BE390934902A3
:101490009FE1909348028A3020F48CED90E013DEB7
:1014A00008959DEC899F912D11249695969596957A
:1014B000990F292F220F220F920F89131EC087ED3B
:1014C00090E001DE08958150809348028DCF8150D5
:1014D0008093480289CF80914802882359F0F7CF42
:1014E000915090934802089590914802992309F4ED
:1014F00097CFF6CF9091490297CF08951F920F9200
:101500000FB60F9211242F933F934F935F936F93D6
:101510007F938F939F93AF93BF93EF93FF9357DF87
:1015200080914602909147028F3F910570F08F5F46
:101530009109909347028093460249DF80914602C9
:10154000909147028F3F910590F782BF109247021A
:10155000109246022CDFFF91EF91BF91AF919F91C6
:101560008F917F916F915F914F913F912F910F904C
:101570000FBE0F901F9018951F920F920FB60F92EB
:1015800011244F925F926F927F928F929F92AF92AF
:10159000BF92CF92DF92EF92FF920F931F932F9300
:1015A0003F934F935F936F937F938F939F93AF93EB
:1015B000BF93CF93EF93FF9380914502811126C093
:1015C00080914A02811108C080914902811104C0B2
:1015D00080914802882359F022B780914602909169
:1015E0004702820F911D909347028093460281E04B
:1015F00080934502109241021092420210924302DF
:101600001092440212BE85E083BFBEC180914A029F
:10161000811108C080914902811104C08091480263
:10162000882359F022B78091460290914702820F99
:10163000911D909347028093460282B712BE8E3668
:1016400010F0B5DEA1C18F3470F080935E0281E0AE
:10165000809345021092410210924202109243027E
:101660001092440291C190914502E92FF0E0E25AB4
:10167000FD4F8083409141025091420260914302AC
:1016800070914402440F551F661F771F8E3048F437
:10169000409341025093420260934302709344028C
:1016A0000CC04F5F5F4F6F4F7F4F4093410250938D
:1016B0004202609343027093440281E0890F809359
:1016C0004502813208F460C172DE80914102C0910E
:1016D00042028095C81721F08DE391E0A5D154C155
:1016E00080913B02811103C081E491E09DD141E0F2
:1016F00064E081E492E0B2D18BE491E095D141E0E5
:1017000064E081E492E0AAD187E591E08DD140E0E8
:1017100061E28EE592E0A2D18AE07ED1C0904102E2
:10172000D0904202E0904302F09044028F2CBB2400
:1017300087FCB0949B2CAB2C182DE6E0F1E0E491F3
:101740008E1205C0E7E0F1E0E491EE15B9F0270153
:10175000772457FC7094672C042D82E090E02BD204
:10176000181306C083E090E026D2841509F43DC02A
:1017700082E190E020D218136DC02FC0E8E0F1E0C4
:10178000E491CE1759F083E090E0182F9C01FC0102
:10179000EA5FFE4FE491CE1318C003C022E030E0B0
:1017A00012E0F901EE0FFF1FE455FF4F8591949170
:1017B0008ADC125080E691E037D1812FD4DD81EAB6
:1017C00091E032D1812FD7DCDFC0019680319105C5
:1017D000E1F68BE691E028D1D7C083E190E0EBD130
:1017E000801338C081E090E002C080E090E06C019E
:1017F000CC0CDD1CCC0CDD1CCC0CDD1CCC0CDD1CA5
:1018000002E010E0B02E7801C8018C0D9D1D8E5FA6
:101810009F4FD1D18C1315C0F701EE0FFF1FE45578
:10182000FF4F859194914FDCBA94BA948BE791E085
:10183000FBD08B2D98DD81EA91E0F6D08B2D9BDCDF
:10184000A3C00F5F1F4F00311105E1F68BE691E059
:10185000EBD09AC080913B02882309F459C0809153
:10186000860290E0A0E0B0E088169906AA06BB06C2
:1018700009F087C08091870290E0A0E0B0E04816B0
:1018800059066A067B0609F07CC080913C0290E014
:10189000FC01EA57FD4FD082FC01EE0FFF1FE4551B
:1018A000FF4F859194910FDCC0913C0281E08C0F39
:1018B00080933C02803110F110923B0210923C0266
:1018C00081E090E078D1C82FC1706C2F70E06295F4
:1018D0007295707F7627607F76276E5F7F4F40E13D
:1018E00050E086E892E06FD161E06C0F81E090E01B
:1018F00079D189E891E098D0A6DC43C084EA91E0F0
:1019000093D08FEF8C0F2FDD8BED91E08DD03CC00D
:1019100080913D0290913E02A0913F02B091400221
:10192000C816D906EA06FB06F1F480913C028F5FE7
:1019300080933C028DEA91E077D080913C02853023
:1019400000F181E080933B0282E080933C02809131
:10195000430290914402E6E8F2E0908381838AEBAF
:1019600091E062D00EC0C0923D02D0923E02E09261
:101970003F02F092400281E080933C028EED91E0C4
:1019800053D086E191E098DBFF91EF91CF91BF9129
:10199000AF919F918F917F916F915F914F913F9107
:1019A0002F911F910F91FF90EF90DF90CF90BF90FC
:1019B000AF909F908F907F906F905F904F900F901F
:1019C0000FBE0F901F90189588E085BF80E88BBFF1
:1019D00089B7816089BF37DC08958FEB87BB8FE3C0
:1019E00084BB82EF81BB8FEF82BB2CD0EDDF8AEA14
:1019F00081BF8FEE91E018D08CE092E015D083ED9E
:101A000090E061DB85B78F78806285BFF89485B7F9
:101A1000806885BF7894FBCF5D9BFECF8CB908951D
:101A20005F9BFECF8CB10895CF93DF93EC0188814B
:101A3000882329F02196F0DF89918111FCCFDF9175
:101A4000CF9108951AB886E880BD10BC83E389B9A8
:101A500088E18AB989E192E0E7DF0895AF92BF9209
:101A6000CF92DF92EF92FF920F931F93CF936C016F
:101A7000062F411103C0611122C04EC0662309F434
:101A80004BC0F601E00FF11D3197C0818C2F82957C
:101A90008F70CF708A3010F0895C01C0805DBCDF30
:101AA000CA3018F087E38C0F02C080E38C0FB4DFDC
:101AB000023010F08DE2B0DF015019F72DC0AA24DA
:101AC000AA94A60EB12C8FEFA81AB80AE12CF12C1B
:101AD000062F10E001501109F601C1916F018C2F02
:101AE00082958F70CF708A3010F0895C01C0805D64
:101AF00093DFCA3018F087E38C0F02C080E38C0FAD
:101B00008BDFE016F10614F48DE286DFFFEFEF1AAB
:101B1000FF0AEA14FB0401F7CF911F910F91FF9088
:101B2000EF90DF90CF90BF90AF900895CF93DF9369
:101B3000D82FC9E28C9FC12D1124C295CF7039F0E6
:101B400080E38C0F69DF84E6C89FD0191124CDECA7
:101B5000DC9FC12D1124C695C695C69580E38C0FD8
:101B60005BDF80E38D0FCC0F9C2F990F990FC90F6E
:101B70008C1B52DFDF91CF910895CF93DF93C82F55
:101B800083E392E051DF90E0D92F892F837021F415
:101B9000992311F08DE240DFCC231CF481E33CDF7C
:101BA00002C080E339DFCC0F91E09D0F983061F7E0
:101BB000DF91CF910895E199FECF9FBB8EBBE09A54
:101BC00099278DB30895DC01A40FB51F41505040F3
:101BD00040F0CB01840F951F2E9105D0415050400D
:101BE000D8F70895262FE199FECF9FBB8EBBE09AD0
:101BF00001970DB2021631F02DBB0FB6F894E29AA0
:0A1C0000E19A0FBE0895F894FFCF9B
:101C0A002B0000002D000000657363006F6B00005D
:101C1A001B5B313B33346D4D757369632073657497
:101C2A0020746F20002D2D2D2D2D2D2D2D0942755F
:101C3A0066436D643A2009001B5B313B33316D54B6
:101C4A00696D65722053746F7065642E1B5B306D0D
:101C5A000A001B5B313B33316D0043757272656E4E
:101C6A00742054696D65723A20003A001B5B306D2E
:101C7A00001B5B313B33346D006565636F64650936
:101C8A002D2D3E097B003078002C20007D2C0A0087
:101C9A00735F636F6465092D2D3E0900735F6D756F
:101CAA00736963092D2D3E09004469676974616C83
:101CBA00204B6579200046756E6374696F6E204B00
:101CCA0065792027001B5B313B33316D54696D65A3
:101CDA0072204F5645522E1B5B306D0A002E452E40
:101CEA00002D2D497244412D2D09000909436F6DBC
:101CFA00706C65746520000A53616D706C65200014
:101D0A00466F756E6420524F4D2000556E646566AD
:101D1A00696E6564204B65792E0A00466F756E649C
:101D2A0020454550524F4D200046696E6973682020
:101D3A005265636F7264204E6577204465766963E5
:101D4A00652E0A000909496E707574200052657083
:101D5A00656174204B65792E0A005265636F72645F
:101D6A00696E672E2E2E09496E7075742044696754
:101D7A006974616C204B65792030303A0A004E65EF
:101D8A007720446576696365204B65792E0A000AD7
:101D9A004156522D497244412D546F6E652D41753D
:101DAA0064696F2073746172742E0A0076657273A7
:101DBA00696F6E20312E340A000A2D2D2D2D2D2DFE
:101DCA002D2D53746172742D2D2D2D2D2D2D2D2D0C
:0A1DDA002D0A0042696E3A20000055
:04000003000000D326
:00000001FF
